{
  "_format": "hh-sol-artifact-1",
  "contractName": "Imageuploading",
  "sourceName": "contracts/UploadImage.sol",
  "abi": [
    {
      "inputs": [
        {
          "internalType": "address",
          "name": "ad",
          "type": "address"
        }
      ],
      "name": "allowpermission",
      "outputs": [],
      "stateMutability": "nonpayable",
      "type": "function"
    },
    {
      "inputs": [
        {
          "internalType": "address",
          "name": "ad",
          "type": "address"
        }
      ],
      "name": "denaypermission",
      "outputs": [],
      "stateMutability": "nonpayable",
      "type": "function"
    },
    {
      "inputs": [
        {
          "internalType": "address",
          "name": "ad",
          "type": "address"
        }
      ],
      "name": "display",
      "outputs": [
        {
          "internalType": "string[]",
          "name": "",
          "type": "string[]"
        }
      ],
      "stateMutability": "view",
      "type": "function"
    },
    {
      "inputs": [],
      "name": "showaccesslist",
      "outputs": [
        {
          "components": [
            {
              "internalType": "address",
              "name": "user",
              "type": "address"
            },
            {
              "internalType": "bool",
              "name": "access",
              "type": "bool"
            }
          ],
          "internalType": "struct Imageuploading.Access[]",
          "name": "",
          "type": "tuple[]"
        }
      ],
      "stateMutability": "view",
      "type": "function"
    },
    {
      "inputs": [
        {
          "internalType": "string",
          "name": "url",
          "type": "string"
        }
      ],
      "name": "upload",
      "outputs": [],
      "stateMutability": "nonpayable",
      "type": "function"
    }
  ],
  "bytecode": "0x608060405234801561001057600080fd5b50611402806100206000396000f3fe608060405234801561001057600080fd5b50600436106100575760003560e01c8063289b57111461005c57806342ce14881461007a578063c654026714610096578063cfecf1ee146100b2578063eb39113f146100ce575b600080fd5b6100646100fe565b6040516100719190610c40565b60405180910390f35b610094600480360381019061008f9190610dbc565b610207565b005b6100b060048036038101906100ab9190610e31565b61027b565b005b6100cc60048036038101906100c79190610e31565b6106c7565b005b6100e860048036038101906100e39190610e31565b6108e9565b6040516100f59190610f9f565b60405180910390f35b6060600360003373ffffffffffffffffffffffffffffffffffffffff1673ffffffffffffffffffffffffffffffffffffffff168152602001908152602001600020805480602002602001604051908101604052809291908181526020016000905b828210156101fe578382906000526020600020016040518060400160405290816000820160009054906101000a900473ffffffffffffffffffffffffffffffffffffffff1673ffffffffffffffffffffffffffffffffffffffff1673ffffffffffffffffffffffffffffffffffffffff1681526020016000820160149054906101000a900460ff1615151515815250508152602001906001019061015f565b50505050905090565b6000803373ffffffffffffffffffffffffffffffffffffffff1673ffffffffffffffffffffffffffffffffffffffff1681526020019081526020016000208190806001815401808255809150506001900390600052602060002001600090919091909150908161027791906111d7565b5050565b60018060003373ffffffffffffffffffffffffffffffffffffffff1673ffffffffffffffffffffffffffffffffffffffff16815260200190815260200160002060008373ffffffffffffffffffffffffffffffffffffffff1673ffffffffffffffffffffffffffffffffffffffff16815260200190815260200160002060006101000a81548160ff02191690831515021790555060011515600260003373ffffffffffffffffffffffffffffffffffffffff1673ffffffffffffffffffffffffffffffffffffffff16815260200190815260200160002060008373ffffffffffffffffffffffffffffffffffffffff1673ffffffffffffffffffffffffffffffffffffffff16815260200190815260200160002060009054906101000a900460ff161515036105335760005b600360003373ffffffffffffffffffffffffffffffffffffffff1673ffffffffffffffffffffffffffffffffffffffff1681526020019081526020016000208054905081101561052d578173ffffffffffffffffffffffffffffffffffffffff16600360003373ffffffffffffffffffffffffffffffffffffffff1673ffffffffffffffffffffffffffffffffffffffff1681526020019081526020016000208281548110610459576104586112a9565b5b9060005260206000200160000160009054906101000a900473ffffffffffffffffffffffffffffffffffffffff1673ffffffffffffffffffffffffffffffffffffffff160361051a576001600360003373ffffffffffffffffffffffffffffffffffffffff1673ffffffffffffffffffffffffffffffffffffffff16815260200190815260200160002082815481106104f5576104f46112a9565b5b9060005260206000200160000160146101000a81548160ff0219169083151502179055505b808061052590611307565b9150506103a7565b506106c4565b600360003373ffffffffffffffffffffffffffffffffffffffff1673ffffffffffffffffffffffffffffffffffffffff16815260200190815260200160002060405180604001604052808373ffffffffffffffffffffffffffffffffffffffff168152602001600115158152509080600181540180825580915050600190039060005260206000200160009091909190915060008201518160000160006101000a81548173ffffffffffffffffffffffffffffffffffffffff021916908373ffffffffffffffffffffffffffffffffffffffff16021790555060208201518160000160146101000a81548160ff02191690831515021790555050506001600260003373ffffffffffffffffffffffffffffffffffffffff1673ffffffffffffffffffffffffffffffffffffffff16815260200190815260200160002060008373ffffffffffffffffffffffffffffffffffffffff1673ffffffffffffffffffffffffffffffffffffffff16815260200190815260200160002060006101000a81548160ff0219169083151502179055505b50565b6000600160003373ffffffffffffffffffffffffffffffffffffffff1673ffffffffffffffffffffffffffffffffffffffff16815260200190815260200160002060008373ffffffffffffffffffffffffffffffffffffffff1673ffffffffffffffffffffffffffffffffffffffff16815260200190815260200160002060006101000a81548160ff02191690831515021790555060005b600360003373ffffffffffffffffffffffffffffffffffffffff1673ffffffffffffffffffffffffffffffffffffffff168152602001908152602001600020805490508110156108e5578173ffffffffffffffffffffffffffffffffffffffff16600360003373ffffffffffffffffffffffffffffffffffffffff1673ffffffffffffffffffffffffffffffffffffffff1681526020019081526020016000208281548110610811576108106112a9565b5b9060005260206000200160000160009054906101000a900473ffffffffffffffffffffffffffffffffffffffff1673ffffffffffffffffffffffffffffffffffffffff16036108d2576000600360003373ffffffffffffffffffffffffffffffffffffffff1673ffffffffffffffffffffffffffffffffffffffff16815260200190815260200160002082815481106108ad576108ac6112a9565b5b9060005260206000200160000160146101000a81548160ff0219169083151502179055505b80806108dd90611307565b91505061075f565b5050565b60603373ffffffffffffffffffffffffffffffffffffffff168273ffffffffffffffffffffffffffffffffffffffff1614806109b2575060011515600160008473ffffffffffffffffffffffffffffffffffffffff1673ffffffffffffffffffffffffffffffffffffffff16815260200190815260200160002060003373ffffffffffffffffffffffffffffffffffffffff1673ffffffffffffffffffffffffffffffffffffffff16815260200190815260200160002060009054906101000a900460ff161515145b6109f1576040517f08c379a00000000000000000000000000000000000000000000000000000000081526004016109e8906113ac565b60405180910390fd5b6000808373ffffffffffffffffffffffffffffffffffffffff1673ffffffffffffffffffffffffffffffffffffffff168152602001908152602001600020805480602002602001604051908101604052809291908181526020016000905b82821015610afb578382906000526020600020018054610a6e90610ff0565b80601f0160208091040260200160405190810160405280929190818152602001828054610a9a90610ff0565b8015610ae75780601f10610abc57610100808354040283529160200191610ae7565b820191906000526020600020905b815481529060010190602001808311610aca57829003601f168201915b505050505081526020019060010190610a4f565b505050509050919050565b600081519050919050565b600082825260208201905092915050565b6000819050602082019050919050565b600073ffffffffffffffffffffffffffffffffffffffff82169050919050565b6000610b5d82610b32565b9050919050565b610b6d81610b52565b82525050565b60008115159050919050565b610b8881610b73565b82525050565b604082016000820151610ba46000850182610b64565b506020820151610bb76020850182610b7f565b50505050565b6000610bc98383610b8e565b60408301905092915050565b6000602082019050919050565b6000610bed82610b06565b610bf78185610b11565b9350610c0283610b22565b8060005b83811015610c33578151610c1a8882610bbd565b9750610c2583610bd5565b925050600181019050610c06565b5085935050505092915050565b60006020820190508181036000830152610c5a8184610be2565b905092915050565b6000604051905090565b600080fd5b600080fd5b600080fd5b600080fd5b6000601f19601f8301169050919050565b7f4e487b7100000000000000000000000000000000000000000000000000000000600052604160045260246000fd5b610cc982610c80565b810181811067ffffffffffffffff82111715610ce857610ce7610c91565b5b80604052505050565b6000610cfb610c62565b9050610d078282610cc0565b919050565b600067ffffffffffffffff821115610d2757610d26610c91565b5b610d3082610c80565b9050602081019050919050565b82818337600083830152505050565b6000610d5f610d5a84610d0c565b610cf1565b905082815260208101848484011115610d7b57610d7a610c7b565b5b610d86848285610d3d565b509392505050565b600082601f830112610da357610da2610c76565b5b8135610db3848260208601610d4c565b91505092915050565b600060208284031215610dd257610dd1610c6c565b5b600082013567ffffffffffffffff811115610df057610def610c71565b5b610dfc84828501610d8e565b91505092915050565b610e0e81610b52565b8114610e1957600080fd5b50565b600081359050610e2b81610e05565b92915050565b600060208284031215610e4757610e46610c6c565b5b6000610e5584828501610e1c565b91505092915050565b600081519050919050565b600082825260208201905092915050565b6000819050602082019050919050565b600081519050919050565b600082825260208201905092915050565b60005b83811015610ec4578082015181840152602081019050610ea9565b60008484015250505050565b6000610edb82610e8a565b610ee58185610e95565b9350610ef5818560208601610ea6565b610efe81610c80565b840191505092915050565b6000610f158383610ed0565b905092915050565b6000602082019050919050565b6000610f3582610e5e565b610f3f8185610e69565b935083602082028501610f5185610e7a565b8060005b85811015610f8d5784840389528151610f6e8582610f09565b9450610f7983610f1d565b925060208a01995050600181019050610f55565b50829750879550505050505092915050565b60006020820190508181036000830152610fb98184610f2a565b905092915050565b7f4e487b7100000000000000000000000000000000000000000000000000000000600052602260045260246000fd5b6000600282049050600182168061100857607f821691505b60208210810361101b5761101a610fc1565b5b50919050565b60008190508160005260206000209050919050565b60006020601f8301049050919050565b600082821b905092915050565b6000600883026110837fffffffffffffffffffffffffffffffffffffffffffffffffffffffffffffffff82611046565b61108d8683611046565b95508019841693508086168417925050509392505050565b6000819050919050565b6000819050919050565b60006110d46110cf6110ca846110a5565b6110af565b6110a5565b9050919050565b6000819050919050565b6110ee836110b9565b6111026110fa826110db565b848454611053565b825550505050565b600090565b61111761110a565b6111228184846110e5565b505050565b5b818110156111465761113b60008261110f565b600181019050611128565b5050565b601f82111561118b5761115c81611021565b61116584611036565b81016020851015611174578190505b61118861118085611036565b830182611127565b50505b505050565b600082821c905092915050565b60006111ae60001984600802611190565b1980831691505092915050565b60006111c7838361119d565b9150826002028217905092915050565b6111e082610e8a565b67ffffffffffffffff8111156111f9576111f8610c91565b5b6112038254610ff0565b61120e82828561114a565b600060209050601f831160018114611241576000841561122f578287015190505b61123985826111bb565b8655506112a1565b601f19841661124f86611021565b60005b8281101561127757848901518255600182019150602085019450602081019050611252565b868310156112945784890151611290601f89168261119d565b8355505b6001600288020188555050505b505050505050565b7f4e487b7100000000000000000000000000000000000000000000000000000000600052603260045260246000fd5b7f4e487b7100000000000000000000000000000000000000000000000000000000600052601160045260246000fd5b6000611312826110a5565b91507fffffffffffffffffffffffffffffffffffffffffffffffffffffffffffffffff8203611344576113436112d8565b5b600182019050919050565b600082825260208201905092915050565b7f4e6565642041757468656e7469636174696f6e00000000000000000000000000600082015250565b600061139660138361134f565b91506113a182611360565b602082019050919050565b600060208201905081810360008301526113c581611389565b905091905056fea26469706673582212208d690235d756946b6700aa003785e740887484445c6e1793f681e263ab94c1b964736f6c63430008110033",
  "linkReferences": {},
  "deployedLinkReferences": {}
}